:100000000C94A7000C94C4000C94C4000C94C4007D
:100010000C94C4000C94C4000C94C4000C94C40050
:100020000C94C4000C94C4000C94C4000C94C40040
:100030000C94C4000C94C4000C94C4000C94C40030
:100040000C94C4000C94C4000C94C4000C94C40020
:100050000C94C40000407A10F35A00A0724E1809A4
:100060000010A5D4E80000E87648170000E40B541F
:10007000020000CA9A3B000000E1F50500008096EE
:100080009800000040420F000000A0860100000020
:10009000102700000000E8030000000064000000DA
:1000A00000000A00000000000100000000002C76A3
:1000B000D888DC674F0823DFC1DFAE59E1B1B796BE
:1000C000E5E3E453C63AE651997696E8E6C284261B
:1000D000EB898C9B62ED407C6FFCEFBC9C9F40F2F7
:1000E000BAA56FA5F490055A2AF75C936B6CF96773
:1000F0006DC11BFCE0E40D47FEF520E6B500D0ED38
:10010000902E0300943577050080841E080000209F
:100110004E0A000000C80C333333330F986E12833D
:100120001141EF8D2114893BE65516CFFEE6DB1811
:10013000D1844B381BF77C1D901DA4BBE4242032D6
:1001400084725E228100C9F124ECA1E53D271124CF
:100150001FBECFE5D4E0DEBFCDBF10E0A0E6B0E02B
:10016000E4EFF4E102C005900D92AE36B107D9F785
:1001700020E0AEE6B0E001C01D92A13BB207E1F77E
:100180000E948F050C94780A0C940000CF93DF93A3
:10019000D82FC62F8EEE0E94C3058D2F0E94EA0530
:1001A0008C2F0E94EA050E94E405DF91CF9108950B
:1001B000CF92DF92EF92FF920F931F93CF93DF9333
:1001C000C82FF62ED72FE42E8EEE0E94C3058C2F5B
:1001D0000E94EA058FEE0E94E105EE2009F10F2D45
:1001E0001D2FCC24CA94CE0CD12C8FEFC81AD80A5C
:1001F000C0E0D0E0F12CE1E0EE1AF108EC16FD06CB
:1002000029F40E94FE05F801808304C00E94F705CE
:10021000F801808321960F5F1F4FCC15DD0571F724
:100220000E94E405DF91CF911F910F91FF90EF9015
:10023000DF90CF900895CF93DF931F92CDB7DEB7B5
:100240000E94A10583E08A95F1F70000198241E040
:10025000BE016F5F7F4F80ED0E94D8008981883595
:10026000B1F48AE1EEE6F0E0DF011D928A95E9F74C
:100270004AE1BF0188E80E94D80060E185EF0E9452
:10028000C60067E584EF0E94C60081E001C080E0FF
:100290000F90DF91CF910895CF93DF931F92CDB749
:1002A000DEB741E0BE016F5F7F4F83EF0E94D80051
:1002B00089810F90DF91CF9108953F924F925F9285
:1002C0006F927F928F929F92AF92BF92CF92DF9266
:1002D000EF92FF920F931F93CF93DF9300D000D044
:1002E00000D0CDB7DEB746E0BE016F5F7F4F87EF2E
:1002F0000E94D80039801A810B818C8190E0A0E0A7
:10030000B0E0AC01BD01032E3CE0440F551F661F59
:10031000771F3A95D1F7302D9D81892F90E0A0E08D
:10032000B0E0880F991FAA1FBB1F880F991FAA1F33
:10033000BB1F880F991FAA1FBB1F880F991FAA1FD9
:10034000BB1F842B952BA62BB72B2E8122952F70AC
:10035000822BEEE6F0E04081518160E070E04C01DC
:100360005D01689413F8B594A794979487941694B4
:10037000D1F7841A950AA60AB70A689412F8B595B7
:10038000A795979587951694D1F7440F551F661F2B
:10039000771F6C017D01C41AD50AE60AF70AA70186
:1003A0009601A281B3810E9442062B013C01032EDB
:1003B0003BE075946794579447943A95D1F7302D64
:1003C000A5019401C501B4010E9405069B01AC0181
:1003D000012E1CE055954795379527951A95D1F72D
:1003E000102DA481B5810E9442066B017C010B2E69
:1003F000BEE0F594E794D794C794BA95D1F7B02DA1
:10040000C40CD51CE61CF71CD701C601880F991F28
:10041000AA1FBB1F880F991FAA1FBB1F8C0D9D1DF4
:10042000AE1DBF1D80589F4FAF4FBF4F892F9A2FD2
:10043000AB2FBB27A7FDBA958093970090939800A8
:10044000A0939900B0939A00F594E794D794C79439
:100450008AEFD81AE108F108C701B601959587958A
:100460007795679595958795779567959B01AC01ED
:100470000E9405064B015C01A285B3859B01AC017E
:10048000012E1DE055954795379527951A95D1F77B
:10049000102D0E9442062B013C01689412F87594BD
:1004A0006794579447941694D1F7A085B185A70116
:1004B00096010E944206DC01CB01B595A795979560
:1004C0008795840D951DA61DB71D072E72E1B59564
:1004D000A795979587957A95D1F7702D9C01AD01D9
:1004E00030584F4F5F4FA681B7810E9437062B01CE
:1004F0003C01032E3FE075946794579447943A95D6
:10050000D1F7302D411451046104710449F4109263
:100510009B0010929C0010929D0010929E0007C1BB
:10052000A5019401012E1BE0559547953795279518
:100530001A95D1F7102DEEE6F0E0A089B1890E945E
:1005400042064B015C01A685B785A70196010E9472
:100550004206DC01CB01880F991FAA1FBB1F880E22
:10056000991EAA1EBB1EB594A79497948794B59420
:10057000A79497948794812F90E0A0E0B0E0880F33
:10058000991FAA1FBB1F880F991FAA1FBB1F880F87
:10059000991FAA1FBB1F880F991FAA1FBB1F029577
:1005A0000F70802B432D50E060E070E0032E3CE0A4
:1005B000440F551F661F771F3A95D1F7302D842BB6
:1005C000952BA62BB72B24853585A901330F660BF8
:1005D000770BBA0155274427480D591D6A1D7B1D0D
:1005E000032E3CE075956795579547953A95D1F759
:1005F000302D9A01AB01280F391F4A1F5B1FABEC4E
:10060000B3EF0E944506805B9C4399238CF0660FF4
:10061000771F881F991FA30192010E94150620933E
:100620009B0030939C0040939D0050939E0012C00D
:10063000A30192010E941506DA01C901880F991FD2
:10064000AA1FBB1F80939B0090939C00A0939D00CA
:10065000B0939E00C0909B00D0909C00E0909D00C5
:10066000F0909E00C701B601689412F896958795A0
:10067000779567951694D1F79B01AC010E9405060A
:100680009B01AC01012E1DE05695479537952795A6
:100690001A95D1F7102DEEE6F0E0A689B7890E94F1
:1006A00042064B015C01072E7CE0B594A794979419
:1006B00087947A95D1F7702DA701960156954795A5
:1006C000379527955695479537952795A489B589E8
:1006D0000E944206DC01CB01072E7DE0B595A7956F
:1006E000979587957A95D1F7702D880D991DAA1D3C
:1006F000BB1D42895389052E000C660B770B840FB6
:10070000951FA61FB71F689413F8B595A7959795E1
:1007100087951694D1F78C0D9D1DAE1DBF1D80933E
:100720009B0090939C00A0939D00B0939E00269602
:100730000FB6F894DEBF0FBECDBFDF91CF911F91F2
:100740000F91FF90EF90DF90CF90BF90AF909F9070
:100750008F907F906F905F904F903F90089517BA61
:1007600018BA08958FEF87BB18BA089517BA8FEF9C
:1007700088BB08950E94B603D99AD89A0000000059
:1007800086B3D898000000008823BCF3D998089558
:10079000D89A82E08A95F1F700C0D8980895CF934F
:1007A000C82F0E94B203C0FDC09AC695C0FDC19A71
:1007B000C695C0FDC29AC695C0FDC39AC695C0FD38
:1007C000C49AC695C0FDC59AC695C0FDC69AC69581
:1007D00009F0C79A0E94C8030E94AF03CF91089501
:1007E000CF93C82F0E94BA038C2F0E94CF03CF91C2
:1007F0000895613009F4805C80680E94F0030895D8
:10080000CF93C82F0E94BA03DA9A8C2F0E94CF038D
:10081000DA98CF910895CF93DF93EC01862F642F60
:100820000E94F9038881882331F021960E940004F8
:1008300089918111FBCFDF91CF910895CF932FEF55
:1008400080E792E0215080409040E1F700C0000036
:100850008AB387608ABB8BB3887F8BBB0E94B2034D
:10086000C3E088B3806388BB0E94C8038FE097E22F
:100870000197F1F700C00000C15099F788E30E948A
:10088000F0038CE00E94F00386E00E94F00382E017
:100890000E94F00381E00E94F003CF910895CF936E
:1008A000DF938A9A92988FE99CE80197F1F700C04C
:1008B0000000929A8A9895E89A95F1F7000082993B
:1008C0002EC025ED2A95F1F70000829B2BC082995E
:1008D000FECFA8E8B0E0CDE8D0E061E070E0FD0137
:1008E0001C9287E090E0829BFECF20E52A95F1F7ED
:1008F000829B0AC040819B01082E02C0220F331F39
:100900000A94E2F7242B20838299FECF019758F7AF
:100910001196CA17DB0719F781E090E005C080E067
:1009200090E002C080E090E0DF91CF910895CF92F7
:10093000DF92EF92FF92CF93DF9310928E0010928E
:100940008D00F8940E944F0490938E0080938D0048
:100950007894019709F07BC0C8E8D0E0688170E026
:10096000762F6627072E000C880B990B0E943F07F5
:100970006B017C01698170E080E090E00E943F079C
:100980009B01AC01C701B6010E945A0620E030E08D
:1009900040E251E40E94CB06609393007093940070
:1009A00080939500909396006A8170E0762F662779
:1009B000072E000C880B990B0E943F076B017C01EE
:1009C0006B8170E080E090E00E943F079B01AC01EA
:1009D000C701B6010E945A066B017C0120E030E09D
:1009E000A9010E94C60688234CF0C0928F00D092C5
:1009F0009000E0929100F092920013C020E030E06D
:100A000040E057E4C701B6010E945A06DC01CB0161
:100A1000B05880938F0090939000A0939100B09372
:100A2000920020E030E040E251E460918F0070914C
:100A3000900080919100909192000E94CB0660936B
:100A40008F00709390008093910090939200DF91BB
:100A5000CF91FF90EF90DF90CF9008950F931F9369
:100A60000E94970440E060E080E690E00E940B0462
:100A700060918F0070919000809191009091920010
:100A80000FE910E021E043E00E94EF0740E062E060
:100A9000C8010E940B0441E060E083E690E00E9400
:100AA0000B04609193007091940080919500909157
:100AB000960021E043E00E94EF0741E062E0C801B8
:100AC0000E940B041F910F9108950F931F930E9492
:100AD0004C010E945D0140E067E086E690E00E94E4
:100AE0000B0460919B0070919C0080919D009091FF
:100AF0009E000E943D072FE632E545E053E40E9448
:100B0000CB0600EB10E020E043E00E94EF0740E05E
:100B10006DE0C8010E940B041F910F9108950E947F
:100B20001E040E941B010E942E052FEF83ED90E30F
:100B3000215080409040E1F700C000000E94650510
:100B4000F2CF11B88CE080B9089594EA96BF06B64A
:100B500007FEFDCF91B1987F983011F0903179F474
:100B600083B984E886BF06B607FEFDCF91B1987FB2
:100B7000983139F081E0903429F480E0089581E0E3
:100B8000089580E0089524EA34E844E926BF06B6D3
:100B900007FEFDCF91B1987F983011F09031B1F7F9
:100BA00083B936BF06B607FEFDCF91B1987F90326C
:100BB00011F0983529F446BF06B604FCFDCFE6CF08
:100BC00008950E94A505089584E986BF06B604FC31
:100BD000FDCF089583B984E886BF06B607FEFDCF32
:100BE00091B1987F81E0983209F480E0089584EC17
:100BF00086BF06B607FEFDCF83B1089584E886BFA1
:100C000006B607FEFDCF83B10895DB018F939F9356
:100C10000E943706BF91AF91A29F800D911DA39FA7
:100C2000900DB29F900D11240895A1E21A2EAA1BD7
:100C3000BB1BFD010DC0AA1FBB1FEE1FFF1FA2178C
:100C4000B307E407F50720F0A21BB30BE40BF50B89
:100C5000661F771F881F991F1A9469F76095709512
:100C6000809590959B01AC01BD01CF0108950E9434
:100C70004A06A59F900DB49F900DA49F800D911DD5
:100C800011240895B7FF0C9437060E943706821B83
:100C9000930B0895A29FB001B39FC001A39F700D55
:100CA000811D1124911DB29F700D811D1124911D74
:100CB00008955058BB27AA270E9471060C94B507C7
:100CC0000E94A70738F00E94AE0720F039F49F3F3A
:100CD00019F426F40C94A4070EF4E095E7FB0C94A9
:100CE0009E07E92F0E94C60758F3BA1762077307D9
:100CF0008407950720F079F4A6F50C94E8070EF424
:100D0000E0950B2EBA2FA02D0B01B90190010C011B
:100D1000CA01A0011124FF27591B99F0593F50F433
:100D2000503E68F11A16F040A22F232F342F44278B
:100D3000585FF3CF469537952795A795F040539583
:100D4000C9F77EF41F16BA0B620B730B840BBAF053
:100D50009150A1F0FF0FBB1F661F771F881FC2F7BE
:100D60000EC0BA0F621F731F841F48F487957795D2
:100D70006795B795F7959E3F08F0B0CF9395880F8C
:100D800008F09927EE0F9795879508950E947A07A6
:100D900008F481E008950E94DF060C94B5070E94D4
:100DA000AE0758F00E94A70740F029F45F3F29F0F2
:100DB0000C949E0751110C94E9070C94A4070E940F
:100DC000C60768F39923B1F3552391F3951B550B8F
:100DD000BB27AA2762177307840738F09F5F5F4F0E
:100DE000220F331F441FAA1FA9F335D00E2E3AF04D
:100DF000E0E832D091505040E695001CCAF72BD065
:100E0000FE2F29D0660F771F881FBB1F26173707B5
:100E10004807AB07B0E809F0BB0B802DBF01FF27E7
:100E200093585F4F3AF09E3F510578F00C949E071F
:100E30000C94E9075F3FE4F3983ED4F386957795E9
:100E40006795B795F7959F5FC9F7880F911D9695A0
:100E5000879597F90895E1E0660F771F881FBB1FFC
:100E6000621773078407BA0720F0621B730B840BA9
:100E7000BA0BEE1F88F7E0950895E89409C097FB38
:100E80003EF490958095709561957F4F8F4F9F4F61
:100E90009923A9F0F92F96E9BB279395F6958795A5
:100EA00077956795B795F111F8CFFAF4BB0F11F468
:100EB00060FF1BC06F5F7F4F8F4F9F4F16C088230F
:100EC00011F096E911C0772321F09EE8872F762F45
:100ED00005C0662371F096E8862F70E060E02AF086
:100EE0009A95660F771F881FDAF7880F9695879572
:100EF00097F90895990F0008550FAA0BE0E8FEEF47
:100F000016161706E807F907C0F012161306E407CD
:100F1000F50798F0621B730B840B950B39F40A26C6
:100F200061F0232B242B252B21F408950A2609F4A4
:100F3000A140A6958FEF811D811D089597F99F67A8
:100F400080E870E060E008959FEF80EC0895002451
:100F50000A941616170618060906089500240A941E
:100F600012161306140605060895092E0394000CA4
:100F700011F4882352F0BB0F40F4BF2B11F460FF33
:100F800004C06F5F7F4F8F4F9F4F089557FD90585C
:100F9000440F551F59F05F3F71F04795880F97FB3D
:100FA000991F61F09F3F79F08795089512161306F7
:100FB0001406551FF2CF4695F1DF08C01616170626
:100FC0001806991FF1CF869571056105089408955B
:100FD000E894BB2766277727CB0197F90895EF920E
:100FE0000F931F93CF93DF93E80147FD02C034E0D6
:100FF00001C034E1042E000C550B57FF03C051957E
:1010000041955109E32E022F242FAE010E940F08B3
:10101000CE01DF91CF911F910F91EF900895A9E03C
:10102000B0E0E5E1F8E00C94470A6A01122FB02E17
:101030002BE3201720F0FF24F394F00E02C02CE3E2
:10104000F22E0F2D27E0AE014F5F5F4F0E9469091E
:10105000BC014981842F8970813031F0E1FC06C0E8
:10106000E0FE06C090E205C09DE203C09BE201C025
:1010700090E05E2D507143FF3CC0911102C083E0AF
:1010800001C084E0811718F4212F281B01C020E043
:1010900051110BC0F601822F30E2882319F03193F1
:1010A0008150FBCFC20ED11C20E0992329F0D6013C
:1010B0009C93F60131966F01C6010396E2FE0AC0C9
:1010C0003EE4D6013C9341E411964C93119712965D
:1010D0003C9306C03EE6F601308341E6418332830D
:1010E000FC01322F40E2332309F442C041933150D6
:1010F000FACF42FF44C0911102C083E001C084E0F6
:10110000811718F4212F281B01C020E051110BC0BA
:10111000F601822F30E2882319F031938150FBCF02
:10112000C20ED11C20E0992329F0D6019C93F60130
:1011300031966F01C6010396E2FE0BC039E4D60179
:101140003C933EE411963C93119736E412963C93FF
:1011500007C039E6F60130833EE6318336E6328356
:10116000FC01322F40E2332319F041933150FBCF81
:10117000FC01E20FF11D10828EEF9FEFA6C021E06F
:1011800030E0911102C020E030E0161617061CF482
:10119000FB01319602C0E1E0F0E02E0F3F1FBB20C3
:1011A00021F0EB2DF0E0319602C0E0E0F0E02E0FF0
:1011B0003F1FE12FF0E02E173F071CF4121B212FD9
:1011C00001C020E08E2D887159F4F601822F30E2A3
:1011D000882319F031938150FBCFC20ED11C20E03F
:1011E000992329F0D6019C93F60131966F01511194
:1011F0000BC0F601822F90E3882319F09193815060
:10120000FBCFC20ED11C20E00F2D060F9A81342F88
:10121000307144FF03C0913309F40150101624F4D7
:10122000093018F008E001C001E0AB0177FF02C00F
:1012300040E050E0FB01E41BF50BA1E0B0E0AC0F97
:10124000BD1FEA0FFB1F8EE2A82E4B01801A9108EA
:101250000B2D10E01195019511094F3FBFEF5B0772
:1012600021F4D601AC9211966D01641775072CF02C
:101270008416950614F4818101C080E34150510920
:101280003196D60111967D014017510724F0D60101
:101290008C936701E2CF6417750739F4963320F415
:1012A000953319F4311101C081E3F6018083F70110
:1012B000822F90E2882319F091938150FBCFF701A0
:1012C000E20FF11D108280E090E02996ECE00C9492
:1012D000630A283008F027E03327DA01990F311D1F
:1012E00087FD916000966105710539F432602E5FCB
:1012F0003D9330E32A95E1F708959F3F30F0803821
:101300007105610509F03C5F3C5F3D93913008F049
:101310008068911DDF93CF931F930F93FF92EF92FD
:10132000192F987F9695E92F96959695E90FFF27A7
:10133000E255FF4F99273327EE24FF24A701E70149
:1013400005900894079428F4360FE71EF81E491FED
:10135000511D660F771F881F991F0694A1F70590EE
:10136000079428F4E70EF81E491F561FC11D770F7A
:10137000881F991F661F0694A1F70590079428F40B
:10138000F80E491F561FC71FD11D880F991F661FD2
:10139000771F0694A1F70590079420F4490F561F74
:1013A000C71FD81F990F661F771F881F0694A9F7BC
:1013B00084911095177041F0D695C795579547952C
:1013C000F794E7941A95C1F7E4E5F0E06894159076
:1013D000159135916591959105907FE27395E1188E
:1013E000F10A430B560BC90BD009C0F7E10CF11EF3
:1013F000431F561FC91FD01D7EF4703311F48A9508
:10140000E6CFE894015030F0080F0AF400270217E5
:1014100008F4202F2395022F7A3328F079E37D9367
:101420002A95E9F710C07D932A9589F60694979539
:101430006795379517951794E118F10A430B560BEA
:10144000C90BD00998F023957E9173957A3308F0F3
:1014500070E37C932013B8F77E9170617D9330F038
:10146000839571E37D9370E32A95E1F71124EF9062
:10147000FF900F911F91CF91DF91992787FD909554
:1014800008952F923F924F925F926F927F928F9228
:101490009F92AF92BF92CF92DF92EF92FF920F9303
:1014A0001F93CF93DF93CDB7DEB7CA1BDB0B0FB60D
:1014B000F894DEBF0FBECDBF09942A8839884888CA
:1014C0005F846E847D848C849B84AA84B984C88460
:1014D000DF80EE80FD800C811B81AA81B981CE0F57
:1014E000D11D0FB6F894DEBF0FBECDBFED0108953C
:0414F000F894FFCF9E
:0E14F400742D00482D0050726573732D00009A
:00000001FF
